{"abi":[{"type":"constructor","inputs":[{"name":"_tokenAddress","type":"address","internalType":"address"},{"name":"_tokenURI","type":"string","internalType":"string"},{"name":"_routerAddress","type":"address","internalType":"address"}],"stateMutability":"nonpayable"},{"type":"function","name":"LIQUIDITY_SUPPLY","inputs":[],"outputs":[{"name":"","type":"uint256","internalType":"uint256"}],"stateMutability":"view"},{"type":"function","name":"PRICE_SLOPE","inputs":[],"outputs":[{"name":"","type":"uint256","internalType":"uint256"}],"stateMutability":"view"},{"type":"function","name":"TOTAL_SUPPLY_ON_CURVE","inputs":[],"outputs":[{"name":"","type":"uint256","internalType":"uint256"}],"stateMutability":"view"},{"type":"function","name":"VESTING_TARGET_ETH","inputs":[],"outputs":[{"name":"","type":"uint256","internalType":"uint256"}],"stateMutability":"view"},{"type":"function","name":"buy","inputs":[],"outputs":[],"stateMutability":"payable"},{"type":"function","name":"getCostForTokens","inputs":[{"name":"numTokens","type":"uint256","internalType":"uint256"}],"outputs":[{"name":"","type":"uint256","internalType":"uint256"}],"stateMutability":"view"},{"type":"function","name":"getTokensForEth","inputs":[{"name":"ethAmount","type":"uint256","internalType":"uint256"}],"outputs":[{"name":"","type":"uint256","internalType":"uint256"}],"stateMutability":"view"},{"type":"function","name":"isLaunchedOnUniswap","inputs":[],"outputs":[{"name":"","type":"bool","internalType":"bool"}],"stateMutability":"view"},{"type":"function","name":"owner","inputs":[],"outputs":[{"name":"","type":"address","internalType":"address"}],"stateMutability":"view"},{"type":"function","name":"renounceOwnership","inputs":[],"outputs":[],"stateMutability":"nonpayable"},{"type":"function","name":"token","inputs":[],"outputs":[{"name":"","type":"address","internalType":"contract IERC20"}],"stateMutability":"view"},{"type":"function","name":"tokenSoldOnCurve","inputs":[],"outputs":[{"name":"","type":"uint256","internalType":"uint256"}],"stateMutability":"view"},{"type":"function","name":"tokenURI","inputs":[],"outputs":[{"name":"","type":"string","internalType":"string"}],"stateMutability":"view"},{"type":"function","name":"transferOwnership","inputs":[{"name":"newOwner","type":"address","internalType":"address"}],"outputs":[],"stateMutability":"nonpayable"},{"type":"function","name":"uniswapRouter","inputs":[],"outputs":[{"name":"","type":"address","internalType":"contract IUniswapV2Router"}],"stateMutability":"view"},{"type":"event","name":"OwnershipTransferred","inputs":[{"name":"previousOwner","type":"address","indexed":true,"internalType":"address"},{"name":"newOwner","type":"address","indexed":true,"internalType":"address"}],"anonymous":false},{"type":"event","name":"TokensBought","inputs":[{"name":"buyer","type":"address","indexed":true,"internalType":"address"},{"name":"ethSpent","type":"uint256","indexed":false,"internalType":"uint256"},{"name":"tokensReceived","type":"uint256","indexed":false,"internalType":"uint256"}],"anonymous":false},{"type":"event","name":"UniswapLaunch","inputs":[{"name":"lpTokenAddress","type":"address","indexed":true,"internalType":"address"},{"name":"ethAmount","type":"uint256","indexed":false,"internalType":"uint256"},{"name":"tokenAmount","type":"uint256","indexed":false,"internalType":"uint256"}],"anonymous":false},{"type":"error","name":"OwnableInvalidOwner","inputs":[{"name":"owner","type":"address","internalType":"address"}]},{"type":"error","name":"OwnableUnauthorizedAccount","inputs":[{"name":"account","type":"address","internalType":"address"}]}],"bytecode":{"object":"0x60c06040525f60025f6101000a81548160ff021916908315150217905550348015610028575f5ffd5b50604051611b1a380380611b1a833981810160405281019061004a91906103b3565b335f73ffffffffffffffffffffffffffffffffffffffff168173ffffffffffffffffffffffffffffffffffffffff16036100bb575f6040517f1e4fbdf70000000000000000000000000000000000000000000000000000000081526004016100b2919061042e565b60405180910390fd5b6100ca8161014b60201b60201c565b508273ffffffffffffffffffffffffffffffffffffffff1660808173ffffffffffffffffffffffffffffffffffffffff1681525050816001908161010e9190610657565b508073ffffffffffffffffffffffffffffffffffffffff1660a08173ffffffffffffffffffffffffffffffffffffffff1681525050505050610726565b5f5f5f9054906101000a900473ffffffffffffffffffffffffffffffffffffffff169050815f5f6101000a81548173ffffffffffffffffffffffffffffffffffffffff021916908373ffffffffffffffffffffffffffffffffffffffff1602179055508173ffffffffffffffffffffffffffffffffffffffff168173ffffffffffffffffffffffffffffffffffffffff167f8be0079c531659141344cd1fd0a4f28419497f9722a3daafe3b4186f6b6457e060405160405180910390a35050565b5f604051905090565b5f5ffd5b5f5ffd5b5f73ffffffffffffffffffffffffffffffffffffffff82169050919050565b5f6102468261021d565b9050919050565b6102568161023c565b8114610260575f5ffd5b50565b5f815190506102718161024d565b92915050565b5f5ffd5b5f5ffd5b5f601f19601f8301169050919050565b7f4e487b71000000000000000000000000000000000000000000000000000000005f52604160045260245ffd5b6102c58261027f565b810181811067ffffffffffffffff821117156102e4576102e361028f565b5b80604052505050565b5f6102f661020c565b905061030282826102bc565b919050565b5f67ffffffffffffffff8211156103215761032061028f565b5b61032a8261027f565b9050602081019050919050565b8281835e5f83830152505050565b5f61035761035284610307565b6102ed565b9050828152602081018484840111156103735761037261027b565b5b61037e848285610337565b509392505050565b5f82601f83011261039a57610399610277565b5b81516103aa848260208601610345565b91505092915050565b5f5f5f606084860312156103ca576103c9610215565b5b5f6103d786828701610263565b935050602084015167ffffffffffffffff8111156103f8576103f7610219565b5b61040486828701610386565b925050604061041586828701610263565b9150509250925092565b6104288161023c565b82525050565b5f6020820190506104415f83018461041f565b92915050565b5f81519050919050565b7f4e487b71000000000000000000000000000000000000000000000000000000005f52602260045260245ffd5b5f600282049050600182168061049557607f821691505b6020821081036104a8576104a7610451565b5b50919050565b5f819050815f5260205f209050919050565b5f6020601f8301049050919050565b5f82821b905092915050565b5f6008830261050a7fffffffffffffffffffffffffffffffffffffffffffffffffffffffffffffffff826104cf565b61051486836104cf565b95508019841693508086168417925050509392505050565b5f819050919050565b5f819050919050565b5f61055861055361054e8461052c565b610535565b61052c565b9050919050565b5f819050919050565b6105718361053e565b61058561057d8261055f565b8484546104db565b825550505050565b5f5f905090565b61059c61058d565b6105a7818484610568565b505050565b5b818110156105ca576105bf5f82610594565b6001810190506105ad565b5050565b601f82111561060f576105e0816104ae565b6105e9846104c0565b810160208510156105f8578190505b61060c610604856104c0565b8301826105ac565b50505b505050565b5f82821c905092915050565b5f61062f5f1984600802610614565b1980831691505092915050565b5f6106478383610620565b9150826002028217905092915050565b61066082610447565b67ffffffffffffffff8111156106795761067861028f565b5b610683825461047e565b61068e8282856105ce565b5f60209050601f8311600181146106bf575f84156106ad578287015190505b6106b7858261063c565b86555061071e565b601f1984166106cd866104ae565b5f5b828110156106f4578489015182556001820191506020850194506020810190506106cf565b86831015610711578489015161070d601f891682610620565b8355505b6001600288020188555050505b505050505050565b60805160a0516113a96107715f395f818161043501528181610a370152610ab701525f818161062a01528181610812015281816109fb01528181610af40152610b8601526113a95ff3fe6080604052600436106100e7575f3560e01c8063735de9f711610089578063a6f2ae3a11610058578063a6f2ae3a146102b7578063dfe100d4146102c1578063f2fde38b146102fd578063fc0c546a14610325576100e7565b8063735de9f7146101fd5780637d4146b8146102275780637e7621c0146102515780638da5cb5b1461028d576100e7565b806353745cf5116100c557806353745cf51461016957806362436d4f146101935780636f707b5b146101bd578063715018a6146101e7576100e7565b8063180fac98146100eb5780633272f505146101155780633c130d901461013f575b5f5ffd5b3480156100f6575f5ffd5b506100ff61034f565b60405161010c9190610c17565b60405180910390f35b348015610120575f5ffd5b50610129610356565b6040516101369190610c17565b60405180910390f35b34801561014a575f5ffd5b50610153610366565b6040516101609190610ca0565b60405180910390f35b348015610174575f5ffd5b5061017d6103f2565b60405161018a9190610cda565b60405180910390f35b34801561019e575f5ffd5b506101a7610404565b6040516101b49190610c17565b60405180910390f35b3480156101c8575f5ffd5b506101d1610414565b6040516101de9190610c17565b60405180910390f35b3480156101f2575f5ffd5b506101fb610420565b005b348015610208575f5ffd5b50610211610433565b60405161021e9190610d6d565b60405180910390f35b348015610232575f5ffd5b5061023b610457565b6040516102489190610c17565b60405180910390f35b34801561025c575f5ffd5b5061027760048036038101906102729190610db4565b61045d565b6040516102849190610c17565b60405180910390f35b348015610298575f5ffd5b506102a16104f0565b6040516102ae9190610dff565b60405180910390f35b6102bf610517565b005b3480156102cc575f5ffd5b506102e760048036038101906102e29190610db4565b61072f565b6040516102f49190610c17565b60405180910390f35b348015610308575f5ffd5b50610323600480360381019061031e9190610e42565b61078c565b005b348015610330575f5ffd5b50610339610810565b6040516103469190610e8d565b60405180910390f35b620f424081565b6b014adf4b7320334b9000000081565b6001805461037390610ed3565b80601f016020809104026020016040519081016040528092919081815260200182805461039f90610ed3565b80156103ea5780601f106103c1576101008083540402835291602001916103ea565b820191905f5260205f20905b8154815290600101906020018083116103cd57829003601f168201915b505050505081565b60025f9054906101000a900460ff1681565b6b019d971e4fe8401e7400000081565b674563918244f4000081565b610428610834565b6104315f6108bb565b565b7f000000000000000000000000000000000000000000000000000000000000000081565b60035481565b5f5f60035490505f671bc16d674ec80000848361047a9190610f30565b85846104869190610f30565b620f42406104949190610f63565b61049e9190610f63565b6104a89190610fd1565b90505f671bc16d674ec800008384620f42406104c49190610f63565b6104ce9190610f63565b6104d89190610fd1565b905080826104e69190611001565b9350505050919050565b5f5f5f9054906101000a900473ffffffffffffffffffffffffffffffffffffffff16905090565b60025f9054906101000a900460ff1615610566576040517f08c379a000000000000000000000000000000000000000000000000000000000815260040161055d9061107e565b60405180910390fd5b5f34116105a8576040517f08c379a000000000000000000000000000000000000000000000000000000000815260040161059f906110e6565b60405180910390fd5b5f6105b23461072f565b90506b019d971e4fe8401e74000000816003546105cf9190610f30565b1115610610576040517f08c379a00000000000000000000000000000000000000000000000000000000081526004016106079061114e565b60405180910390fd5b8060035f8282546106219190610f30565b925050819055507f000000000000000000000000000000000000000000000000000000000000000073ffffffffffffffffffffffffffffffffffffffff1663a9059cbb33836040518363ffffffff1660e01b815260040161068392919061116c565b6020604051808303815f875af115801561069f573d5f5f3e3d5ffd5b505050506040513d601f19601f820116820180604052508101906106c391906111bd565b503373ffffffffffffffffffffffffffffffffffffffff167f8442948036198f1146d3a63c3db355d7e0295c2cc5676c755990445da4fdc1c9348360405161070c9291906111e8565b60405180910390a2674563918244f40000471061072c5761072b61097c565b5b50565b5f5f60035490505f81620f42406107469190610f63565b90505f81036107635769d3c21bcecceda100000092505050610787565b80670de0b6b3a7640000856107789190610f63565b6107829190610fd1565b925050505b919050565b610794610834565b5f73ffffffffffffffffffffffffffffffffffffffff168173ffffffffffffffffffffffffffffffffffffffff1603610804575f6040517f1e4fbdf70000000000000000000000000000000000000000000000000000000081526004016107fb9190610dff565b60405180910390fd5b61080d816108bb565b50565b7f000000000000000000000000000000000000000000000000000000000000000081565b61083c610bf8565b73ffffffffffffffffffffffffffffffffffffffff1661085a6104f0565b73ffffffffffffffffffffffffffffffffffffffff16146108b95761087d610bf8565b6040517f118cdaa70000000000000000000000000000000000000000000000000000000081526004016108b09190610dff565b60405180910390fd5b565b5f5f5f9054906101000a900473ffffffffffffffffffffffffffffffffffffffff169050815f5f6101000a81548173ffffffffffffffffffffffffffffffffffffffff021916908373ffffffffffffffffffffffffffffffffffffffff1602179055508173ffffffffffffffffffffffffffffffffffffffff168173ffffffffffffffffffffffffffffffffffffffff167f8be0079c531659141344cd1fd0a4f28419497f9722a3daafe3b4186f6b6457e060405160405180910390a35050565b60025f9054906101000a900460ff16156109cb576040517f08c379a00000000000000000000000000000000000000000000000000000000081526004016109c290611259565b60405180910390fd5b600160025f6101000a81548160ff0219169083151502179055505f4790505f6b014adf4b7320334b9000000090507f000000000000000000000000000000000000000000000000000000000000000073ffffffffffffffffffffffffffffffffffffffff1663095ea7b37f0000000000000000000000000000000000000000000000000000000000000000836040518363ffffffff1660e01b8152600401610a7492919061116c565b6020604051808303815f875af1158015610a90573d5f5f3e3d5ffd5b505050506040513d601f19601f82011682018060405250810190610ab491906111bd565b507f000000000000000000000000000000000000000000000000000000000000000073ffffffffffffffffffffffffffffffffffffffff1663f305d719837f0000000000000000000000000000000000000000000000000000000000000000845f5f610b1e6104f0565b426040518863ffffffff1660e01b8152600401610b40969594939291906112b0565b60606040518083038185885af1158015610b5c573d5f5f3e3d5ffd5b50505050506040513d601f19601f82011682018060405250810190610b819190611323565b5050507f000000000000000000000000000000000000000000000000000000000000000073ffffffffffffffffffffffffffffffffffffffff167fff82574eaa8642dbcd8b6039f466f8f51ee2b0149d002da87e0cf7b4075b85528383604051610bec9291906111e8565b60405180910390a25050565b5f33905090565b5f819050919050565b610c1181610bff565b82525050565b5f602082019050610c2a5f830184610c08565b92915050565b5f81519050919050565b5f82825260208201905092915050565b8281835e5f83830152505050565b5f601f19601f8301169050919050565b5f610c7282610c30565b610c7c8185610c3a565b9350610c8c818560208601610c4a565b610c9581610c58565b840191505092915050565b5f6020820190508181035f830152610cb88184610c68565b905092915050565b5f8115159050919050565b610cd481610cc0565b82525050565b5f602082019050610ced5f830184610ccb565b92915050565b5f73ffffffffffffffffffffffffffffffffffffffff82169050919050565b5f819050919050565b5f610d35610d30610d2b84610cf3565b610d12565b610cf3565b9050919050565b5f610d4682610d1b565b9050919050565b5f610d5782610d3c565b9050919050565b610d6781610d4d565b82525050565b5f602082019050610d805f830184610d5e565b92915050565b5f5ffd5b610d9381610bff565b8114610d9d575f5ffd5b50565b5f81359050610dae81610d8a565b92915050565b5f60208284031215610dc957610dc8610d86565b5b5f610dd684828501610da0565b91505092915050565b5f610de982610cf3565b9050919050565b610df981610ddf565b82525050565b5f602082019050610e125f830184610df0565b92915050565b610e2181610ddf565b8114610e2b575f5ffd5b50565b5f81359050610e3c81610e18565b92915050565b5f60208284031215610e5757610e56610d86565b5b5f610e6484828501610e2e565b91505092915050565b5f610e7782610d3c565b9050919050565b610e8781610e6d565b82525050565b5f602082019050610ea05f830184610e7e565b92915050565b7f4e487b71000000000000000000000000000000000000000000000000000000005f52602260045260245ffd5b5f6002820490506001821680610eea57607f821691505b602082108103610efd57610efc610ea6565b5b50919050565b7f4e487b71000000000000000000000000000000000000000000000000000000005f52601160045260245ffd5b5f610f3a82610bff565b9150610f4583610bff565b9250828201905080821115610f5d57610f5c610f03565b5b92915050565b5f610f6d82610bff565b9150610f7883610bff565b9250828202610f8681610bff565b91508282048414831517610f9d57610f9c610f03565b5b5092915050565b7f4e487b71000000000000000000000000000000000000000000000000000000005f52601260045260245ffd5b5f610fdb82610bff565b9150610fe683610bff565b925082610ff657610ff5610fa4565b5b828204905092915050565b5f61100b82610bff565b915061101683610bff565b925082820390508181111561102e5761102d610f03565b5b92915050565b7f54726164696e67206973206c697665206f6e20556e69737761700000000000005f82015250565b5f611068601a83610c3a565b915061107382611034565b602082019050919050565b5f6020820190508181035f8301526110958161105c565b9050919050565b7f4d7573742073656e6420455448000000000000000000000000000000000000005f82015250565b5f6110d0600d83610c3a565b91506110db8261109c565b602082019050919050565b5f6020820190508181035f8301526110fd816110c4565b9050919050565b7f437572766520736f6c64206f75740000000000000000000000000000000000005f82015250565b5f611138600e83610c3a565b915061114382611104565b602082019050919050565b5f6020820190508181035f8301526111658161112c565b9050919050565b5f60408201905061117f5f830185610df0565b61118c6020830184610c08565b9392505050565b61119c81610cc0565b81146111a6575f5ffd5b50565b5f815190506111b781611193565b92915050565b5f602082840312156111d2576111d1610d86565b5b5f6111df848285016111a9565b91505092915050565b5f6040820190506111fb5f830185610c08565b6112086020830184610c08565b9392505050565b7f416c7265616479206c61756e63686564000000000000000000000000000000005f82015250565b5f611243601083610c3a565b915061124e8261120f565b602082019050919050565b5f6020820190508181035f83015261127081611237565b9050919050565b5f819050919050565b5f61129a61129561129084611277565b610d12565b610bff565b9050919050565b6112aa81611280565b82525050565b5f60c0820190506112c35f830189610df0565b6112d06020830188610c08565b6112dd60408301876112a1565b6112ea60608301866112a1565b6112f76080830185610df0565b61130460a0830184610c08565b979650505050505050565b5f8151905061131d81610d8a565b92915050565b5f5f5f6060848603121561133a57611339610d86565b5b5f6113478682870161130f565b93505060206113588682870161130f565b92505060406113698682870161130f565b915050925092509256fea2646970667358221220c5b1bd89a07173605d3e89fff997e67d782428f98463d519884e7d22aa7998b064736f6c634300081e0033","linkReferences":{}},"methodIdentifiers":{"LIQUIDITY_SUPPLY()":"3272f505","PRICE_SLOPE()":"180fac98","TOTAL_SUPPLY_ON_CURVE()":"62436d4f","VESTING_TARGET_ETH()":"6f707b5b","buy()":"a6f2ae3a","getCostForTokens(uint256)":"7e7621c0","getTokensForEth(uint256)":"dfe100d4","isLaunchedOnUniswap()":"53745cf5","owner()":"8da5cb5b","renounceOwnership()":"715018a6","token()":"fc0c546a","tokenSoldOnCurve()":"7d4146b8","tokenURI()":"3c130d90","transferOwnership(address)":"f2fde38b","uniswapRouter()":"735de9f7"},"id":28}