{"abi":[{"type":"function","name":"UNISWAP_V2_ROUTER","inputs":[],"outputs":[{"name":"","type":"address","internalType":"address"}],"stateMutability":"view"},{"type":"function","name":"allCoins","inputs":[{"name":"","type":"uint256","internalType":"uint256"}],"outputs":[{"name":"","type":"address","internalType":"address"}],"stateMutability":"view"},{"type":"function","name":"createCoin","inputs":[{"name":"name","type":"string","internalType":"string"},{"name":"symbol","type":"string","internalType":"string"},{"name":"tokenURI","type":"string","internalType":"string"}],"outputs":[],"stateMutability":"nonpayable"},{"type":"function","name":"getAllCoins","inputs":[],"outputs":[{"name":"","type":"address[]","internalType":"address[]"}],"stateMutability":"view"},{"type":"function","name":"getCoinCount","inputs":[],"outputs":[{"name":"","type":"uint256","internalType":"uint256"}],"stateMutability":"view"},{"type":"event","name":"CoinCreated","inputs":[{"name":"name","type":"string","indexed":false,"internalType":"string"},{"name":"symbol","type":"string","indexed":false,"internalType":"string"},{"name":"tokenAddress","type":"address","indexed":false,"internalType":"address"},{"name":"bondingCurveAddress","type":"address","indexed":false,"internalType":"address"},{"name":"creator","type":"address","indexed":false,"internalType":"address"}],"anonymous":false}],"bytecode":{"object":"0x6080604052348015600e575f5ffd5b506141b98061001c5f395ff3fe608060405234801561000f575f5ffd5b5060043610610055575f3560e01c806313560cac146100595780633ae862a914610089578063a4ec0620146100a5578063a82ed9ec146100c3578063ab7e38a0146100e1575b5f5ffd5b610073600480360381019061006e91906104b9565b6100ff565b6040516100809190610523565b60405180910390f35b6100a3600480360381019061009e9190610678565b610139565b005b6100ad6103ae565b6040516100ba91906107d3565b60405180910390f35b6100cb610438565b6040516100d89190610523565b60405180910390f35b6100e9610450565b6040516100f69190610802565b60405180910390f35b5f818154811061010d575f80fd5b905f5260205f20015f915054906101000a900473ffffffffffffffffffffffffffffffffffffffff1681565b5f83836040516101489061045b565b61015392919061087b565b604051809103905ff08015801561016c573d5f5f3e3d5ffd5b5090505f818373c532a74256d3db42d0bf7a0400f43286f909ec4560405161019390610468565b61019f939291906108b0565b604051809103905ff0801580156101b8573d5f5f3e3d5ffd5b5090508173ffffffffffffffffffffffffffffffffffffffff1663a9059cbb828473ffffffffffffffffffffffffffffffffffffffff166318160ddd6040518163ffffffff1660e01b8152600401602060405180830381865afa158015610221573d5f5f3e3d5ffd5b505050506040513d601f19601f820116820180604052508101906102459190610900565b6040518363ffffffff1660e01b815260040161026292919061092b565b6020604051808303815f875af115801561027e573d5f5f3e3d5ffd5b505050506040513d601f19601f820116820180604052508101906102a29190610987565b508173ffffffffffffffffffffffffffffffffffffffff1663f2fde38b826040518263ffffffff1660e01b81526004016102dc9190610523565b5f604051808303815f87803b1580156102f3575f5ffd5b505af1158015610305573d5f5f3e3d5ffd5b505050505f81908060018154018082558091505060019003905f5260205f20015f9091909190916101000a81548173ffffffffffffffffffffffffffffffffffffffff021916908373ffffffffffffffffffffffffffffffffffffffff1602179055507fd43c35092da40502eb7c726fb66b49d4c2b896f2de5c48db8747f1fdded9612d858584843360405161039f9594939291906109b2565b60405180910390a15050505050565b60605f80548060200260200160405190810160405280929190818152602001828054801561042e57602002820191905f5260205f20905b815f9054906101000a900473ffffffffffffffffffffffffffffffffffffffff1673ffffffffffffffffffffffffffffffffffffffff16815260200190600101908083116103e5575b5050505050905090565b73c532a74256d3db42d0bf7a0400f43286f909ec4581565b5f5f80549050905090565b611c5880610a1283390190565b611b1a8061266a83390190565b5f604051905090565b5f5ffd5b5f5ffd5b5f819050919050565b61049881610486565b81146104a2575f5ffd5b50565b5f813590506104b38161048f565b92915050565b5f602082840312156104ce576104cd61047e565b5b5f6104db848285016104a5565b91505092915050565b5f73ffffffffffffffffffffffffffffffffffffffff82169050919050565b5f61050d826104e4565b9050919050565b61051d81610503565b82525050565b5f6020820190506105365f830184610514565b92915050565b5f5ffd5b5f5ffd5b5f601f19601f8301169050919050565b7f4e487b71000000000000000000000000000000000000000000000000000000005f52604160045260245ffd5b61058a82610544565b810181811067ffffffffffffffff821117156105a9576105a8610554565b5b80604052505050565b5f6105bb610475565b90506105c78282610581565b919050565b5f67ffffffffffffffff8211156105e6576105e5610554565b5b6105ef82610544565b9050602081019050919050565b828183375f83830152505050565b5f61061c610617846105cc565b6105b2565b90508281526020810184848401111561063857610637610540565b5b6106438482856105fc565b509392505050565b5f82601f83011261065f5761065e61053c565b5b813561066f84826020860161060a565b91505092915050565b5f5f5f6060848603121561068f5761068e61047e565b5b5f84013567ffffffffffffffff8111156106ac576106ab610482565b5b6106b88682870161064b565b935050602084013567ffffffffffffffff8111156106d9576106d8610482565b5b6106e58682870161064b565b925050604084013567ffffffffffffffff81111561070657610705610482565b5b6107128682870161064b565b9150509250925092565b5f81519050919050565b5f82825260208201905092915050565b5f819050602082019050919050565b61074e81610503565b82525050565b5f61075f8383610745565b60208301905092915050565b5f602082019050919050565b5f6107818261071c565b61078b8185610726565b935061079683610736565b805f5b838110156107c65781516107ad8882610754565b97506107b88361076b565b925050600181019050610799565b5085935050505092915050565b5f6020820190508181035f8301526107eb8184610777565b905092915050565b6107fc81610486565b82525050565b5f6020820190506108155f8301846107f3565b92915050565b5f81519050919050565b5f82825260208201905092915050565b8281835e5f83830152505050565b5f61084d8261081b565b6108578185610825565b9350610867818560208601610835565b61087081610544565b840191505092915050565b5f6040820190508181035f8301526108938185610843565b905081810360208301526108a78184610843565b90509392505050565b5f6060820190506108c35f830186610514565b81810360208301526108d58185610843565b90506108e46040830184610514565b949350505050565b5f815190506108fa8161048f565b92915050565b5f602082840312156109155761091461047e565b5b5f610922848285016108ec565b91505092915050565b5f60408201905061093e5f830185610514565b61094b60208301846107f3565b9392505050565b5f8115159050919050565b61096681610952565b8114610970575f5ffd5b50565b5f815190506109818161095d565b92915050565b5f6020828403121561099c5761099b61047e565b5b5f6109a984828501610973565b91505092915050565b5f60a0820190508181035f8301526109ca8188610843565b905081810360208301526109de8187610843565b90506109ed6040830186610514565b6109fa6060830185610514565b610a076080830184610514565b969550505050505056fe608060405234801561000f575f5ffd5b50604051611c58380380611c58833981810160405281019061003191906105cb565b33828281600390816100439190610851565b5080600490816100539190610851565b5050505f73ffffffffffffffffffffffffffffffffffffffff168173ffffffffffffffffffffffffffffffffffffffff16036100c6575f6040517f1e4fbdf70000000000000000000000000000000000000000000000000000000081526004016100bd919061095f565b60405180910390fd5b6100d58161011560201b60201c565b5061010e336100e86101d860201b60201c565b600a6100f49190610ae0565b633b9aca006101039190610b2a565b6101e060201b60201c565b5050610bfb565b5f60055f9054906101000a900473ffffffffffffffffffffffffffffffffffffffff1690508160055f6101000a81548173ffffffffffffffffffffffffffffffffffffffff021916908373ffffffffffffffffffffffffffffffffffffffff1602179055508173ffffffffffffffffffffffffffffffffffffffff168173ffffffffffffffffffffffffffffffffffffffff167f8be0079c531659141344cd1fd0a4f28419497f9722a3daafe3b4186f6b6457e060405160405180910390a35050565b5f6012905090565b5f73ffffffffffffffffffffffffffffffffffffffff168273ffffffffffffffffffffffffffffffffffffffff1603610250575f6040517fec442f05000000000000000000000000000000000000000000000000000000008152600401610247919061095f565b60405180910390fd5b6102615f838361026560201b60201c565b5050565b5f73ffffffffffffffffffffffffffffffffffffffff168373ffffffffffffffffffffffffffffffffffffffff16036102b5578060025f8282546102a99190610b6b565b92505081905550610383565b5f5f5f8573ffffffffffffffffffffffffffffffffffffffff1673ffffffffffffffffffffffffffffffffffffffff1681526020019081526020015f205490508181101561033e578381836040517fe450d38c00000000000000000000000000000000000000000000000000000000815260040161033593929190610bad565b60405180910390fd5b8181035f5f8673ffffffffffffffffffffffffffffffffffffffff1673ffffffffffffffffffffffffffffffffffffffff1681526020019081526020015f2081905550505b5f73ffffffffffffffffffffffffffffffffffffffff168273ffffffffffffffffffffffffffffffffffffffff16036103ca578060025f8282540392505081905550610414565b805f5f8473ffffffffffffffffffffffffffffffffffffffff1673ffffffffffffffffffffffffffffffffffffffff1681526020019081526020015f205f82825401925050819055505b8173ffffffffffffffffffffffffffffffffffffffff168373ffffffffffffffffffffffffffffffffffffffff167fddf252ad1be2c89b69c2b068fc378daa952ba7f163c4a11628f55a4df523b3ef836040516104719190610be2565b60405180910390a3505050565b5f604051905090565b5f5ffd5b5f5ffd5b5f5ffd5b5f5ffd5b5f601f19601f8301169050919050565b7f4e487b71000000000000000000000000000000000000000000000000000000005f52604160045260245ffd5b6104dd82610497565b810181811067ffffffffffffffff821117156104fc576104fb6104a7565b5b80604052505050565b5f61050e61047e565b905061051a82826104d4565b919050565b5f67ffffffffffffffff821115610539576105386104a7565b5b61054282610497565b9050602081019050919050565b8281835e5f83830152505050565b5f61056f61056a8461051f565b610505565b90508281526020810184848401111561058b5761058a610493565b5b61059684828561054f565b509392505050565b5f82601f8301126105b2576105b161048f565b5b81516105c284826020860161055d565b91505092915050565b5f5f604083850312156105e1576105e0610487565b5b5f83015167ffffffffffffffff8111156105fe576105fd61048b565b5b61060a8582860161059e565b925050602083015167ffffffffffffffff81111561062b5761062a61048b565b5b6106378582860161059e565b9150509250929050565b5f81519050919050565b7f4e487b71000000000000000000000000000000000000000000000000000000005f52602260045260245ffd5b5f600282049050600182168061068f57607f821691505b6020821081036106a2576106a161064b565b5b50919050565b5f819050815f5260205f209050919050565b5f6020601f8301049050919050565b5f82821b905092915050565b5f600883026107047fffffffffffffffffffffffffffffffffffffffffffffffffffffffffffffffff826106c9565b61070e86836106c9565b95508019841693508086168417925050509392505050565b5f819050919050565b5f819050919050565b5f61075261074d61074884610726565b61072f565b610726565b9050919050565b5f819050919050565b61076b83610738565b61077f61077782610759565b8484546106d5565b825550505050565b5f5f905090565b610796610787565b6107a1818484610762565b505050565b5b818110156107c4576107b95f8261078e565b6001810190506107a7565b5050565b601f821115610809576107da816106a8565b6107e3846106ba565b810160208510156107f2578190505b6108066107fe856106ba565b8301826107a6565b50505b505050565b5f82821c905092915050565b5f6108295f198460080261080e565b1980831691505092915050565b5f610841838361081a565b9150826002028217905092915050565b61085a82610641565b67ffffffffffffffff811115610873576108726104a7565b5b61087d8254610678565b6108888282856107c8565b5f60209050601f8311600181146108b9575f84156108a7578287015190505b6108b18582610836565b865550610918565b601f1984166108c7866106a8565b5f5b828110156108ee578489015182556001820191506020850194506020810190506108c9565b8683101561090b5784890151610907601f89168261081a565b8355505b6001600288020188555050505b505050505050565b5f73ffffffffffffffffffffffffffffffffffffffff82169050919050565b5f61094982610920565b9050919050565b6109598161093f565b82525050565b5f6020820190506109725f830184610950565b92915050565b7f4e487b71000000000000000000000000000000000000000000000000000000005f52601160045260245ffd5b5f8160011c9050919050565b5f5f8291508390505b60018511156109fa578086048111156109d6576109d5610978565b5b60018516156109e55780820291505b80810290506109f3856109a5565b94506109ba565b94509492505050565b5f82610a125760019050610acd565b81610a1f575f9050610acd565b8160018114610a355760028114610a3f57610a6e565b6001915050610acd565b60ff841115610a5157610a50610978565b5b8360020a915084821115610a6857610a67610978565b5b50610acd565b5060208310610133831016604e8410600b8410161715610aa35782820a905083811115610a9e57610a9d610978565b5b610acd565b610ab084848460016109b1565b92509050818404811115610ac757610ac6610978565b5b81810290505b9392505050565b5f60ff82169050919050565b5f610aea82610726565b9150610af583610ad4565b9250610b227fffffffffffffffffffffffffffffffffffffffffffffffffffffffffffffffff8484610a03565b905092915050565b5f610b3482610726565b9150610b3f83610726565b9250828202610b4d81610726565b91508282048414831517610b6457610b63610978565b5b5092915050565b5f610b7582610726565b9150610b8083610726565b9250828201905080821115610b9857610b97610978565b5b92915050565b610ba781610726565b82525050565b5f606082019050610bc05f830186610950565b610bcd6020830185610b9e565b610bda6040830184610b9e565b949350505050565b5f602082019050610bf55f830184610b9e565b92915050565b61105080610c085f395ff3fe608060405234801561000f575f5ffd5b50600436106100b2575f3560e01c8063715018a61161006f578063715018a6146101a05780638da5cb5b146101aa57806395d89b41146101c8578063a9059cbb146101e6578063dd62ed3e14610216578063f2fde38b14610246576100b2565b806306fdde03146100b6578063095ea7b3146100d457806318160ddd1461010457806323b872dd14610122578063313ce5671461015257806370a0823114610170575b5f5ffd5b6100be610262565b6040516100cb9190610cc9565b60405180910390f35b6100ee60048036038101906100e99190610d7a565b6102f2565b6040516100fb9190610dd2565b60405180910390f35b61010c610314565b6040516101199190610dfa565b60405180910390f35b61013c60048036038101906101379190610e13565b61031d565b6040516101499190610dd2565b60405180910390f35b61015a61034b565b6040516101679190610e7e565b60405180910390f35b61018a60048036038101906101859190610e97565b610353565b6040516101979190610dfa565b60405180910390f35b6101a8610398565b005b6101b26103ab565b6040516101bf9190610ed1565b60405180910390f35b6101d06103d3565b6040516101dd9190610cc9565b60405180910390f35b61020060048036038101906101fb9190610d7a565b610463565b60405161020d9190610dd2565b60405180910390f35b610230600480360381019061022b9190610eea565b610485565b60405161023d9190610dfa565b60405180910390f35b610260600480360381019061025b9190610e97565b610507565b005b60606003805461027190610f55565b80601f016020809104026020016040519081016040528092919081815260200182805461029d90610f55565b80156102e85780601f106102bf576101008083540402835291602001916102e8565b820191905f5260205f20905b8154815290600101906020018083116102cb57829003601f168201915b5050505050905090565b5f5f6102fc61058b565b9050610309818585610592565b600191505092915050565b5f600254905090565b5f5f61032761058b565b90506103348582856105a4565b61033f858585610637565b60019150509392505050565b5f6012905090565b5f5f5f8373ffffffffffffffffffffffffffffffffffffffff1673ffffffffffffffffffffffffffffffffffffffff1681526020019081526020015f20549050919050565b6103a0610727565b6103a95f6107ae565b565b5f60055f9054906101000a900473ffffffffffffffffffffffffffffffffffffffff16905090565b6060600480546103e290610f55565b80601f016020809104026020016040519081016040528092919081815260200182805461040e90610f55565b80156104595780601f1061043057610100808354040283529160200191610459565b820191905f5260205f20905b81548152906001019060200180831161043c57829003601f168201915b5050505050905090565b5f5f61046d61058b565b905061047a818585610637565b600191505092915050565b5f60015f8473ffffffffffffffffffffffffffffffffffffffff1673ffffffffffffffffffffffffffffffffffffffff1681526020019081526020015f205f8373ffffffffffffffffffffffffffffffffffffffff1673ffffffffffffffffffffffffffffffffffffffff1681526020019081526020015f2054905092915050565b61050f610727565b5f73ffffffffffffffffffffffffffffffffffffffff168173ffffffffffffffffffffffffffffffffffffffff160361057f575f6040517f1e4fbdf70000000000000000000000000000000000000000000000000000000081526004016105769190610ed1565b60405180910390fd5b610588816107ae565b50565b5f33905090565b61059f8383836001610871565b505050565b5f6105af8484610485565b90507fffffffffffffffffffffffffffffffffffffffffffffffffffffffffffffffff8110156106315781811015610622578281836040517ffb8f41b200000000000000000000000000000000000000000000000000000000815260040161061993929190610f85565b60405180910390fd5b61063084848484035f610871565b5b50505050565b5f73ffffffffffffffffffffffffffffffffffffffff168373ffffffffffffffffffffffffffffffffffffffff16036106a7575f6040517f96c6fd1e00000000000000000000000000000000000000000000000000000000815260040161069e9190610ed1565b60405180910390fd5b5f73ffffffffffffffffffffffffffffffffffffffff168273ffffffffffffffffffffffffffffffffffffffff1603610717575f6040517fec442f0500000000000000000000000000000000000000000000000000000000815260040161070e9190610ed1565b60405180910390fd5b610722838383610a40565b505050565b61072f61058b565b73ffffffffffffffffffffffffffffffffffffffff1661074d6103ab565b73ffffffffffffffffffffffffffffffffffffffff16146107ac5761077061058b565b6040517f118cdaa70000000000000000000000000000000000000000000000000000000081526004016107a39190610ed1565b60405180910390fd5b565b5f60055f9054906101000a900473ffffffffffffffffffffffffffffffffffffffff1690508160055f6101000a81548173ffffffffffffffffffffffffffffffffffffffff021916908373ffffffffffffffffffffffffffffffffffffffff1602179055508173ffffffffffffffffffffffffffffffffffffffff168173ffffffffffffffffffffffffffffffffffffffff167f8be0079c531659141344cd1fd0a4f28419497f9722a3daafe3b4186f6b6457e060405160405180910390a35050565b5f73ffffffffffffffffffffffffffffffffffffffff168473ffffffffffffffffffffffffffffffffffffffff16036108e1575f6040517fe602df050000000000000000000000000000000000000000000000000000000081526004016108d89190610ed1565b60405180910390fd5b5f73ffffffffffffffffffffffffffffffffffffffff168373ffffffffffffffffffffffffffffffffffffffff1603610951575f6040517f94280d620000000000000000000000000000000000000000000000000000000081526004016109489190610ed1565b60405180910390fd5b8160015f8673ffffffffffffffffffffffffffffffffffffffff1673ffffffffffffffffffffffffffffffffffffffff1681526020019081526020015f205f8573ffffffffffffffffffffffffffffffffffffffff1673ffffffffffffffffffffffffffffffffffffffff1681526020019081526020015f20819055508015610a3a578273ffffffffffffffffffffffffffffffffffffffff168473ffffffffffffffffffffffffffffffffffffffff167f8c5be1e5ebec7d5bd14f71427d1e84f3dd0314c0f7b2291e5b200ac8c7c3b92584604051610a319190610dfa565b60405180910390a35b50505050565b5f73ffffffffffffffffffffffffffffffffffffffff168373ffffffffffffffffffffffffffffffffffffffff1603610a90578060025f828254610a849190610fe7565b92505081905550610b5e565b5f5f5f8573ffffffffffffffffffffffffffffffffffffffff1673ffffffffffffffffffffffffffffffffffffffff1681526020019081526020015f2054905081811015610b19578381836040517fe450d38c000000000000000000000000000000000000000000000000000000008152600401610b1093929190610f85565b60405180910390fd5b8181035f5f8673ffffffffffffffffffffffffffffffffffffffff1673ffffffffffffffffffffffffffffffffffffffff1681526020019081526020015f2081905550505b5f73ffffffffffffffffffffffffffffffffffffffff168273ffffffffffffffffffffffffffffffffffffffff1603610ba5578060025f8282540392505081905550610bef565b805f5f8473ffffffffffffffffffffffffffffffffffffffff1673ffffffffffffffffffffffffffffffffffffffff1681526020019081526020015f205f82825401925050819055505b8173ffffffffffffffffffffffffffffffffffffffff168373ffffffffffffffffffffffffffffffffffffffff167fddf252ad1be2c89b69c2b068fc378daa952ba7f163c4a11628f55a4df523b3ef83604051610c4c9190610dfa565b60405180910390a3505050565b5f81519050919050565b5f82825260208201905092915050565b8281835e5f83830152505050565b5f601f19601f8301169050919050565b5f610c9b82610c59565b610ca58185610c63565b9350610cb5818560208601610c73565b610cbe81610c81565b840191505092915050565b5f6020820190508181035f830152610ce18184610c91565b905092915050565b5f5ffd5b5f73ffffffffffffffffffffffffffffffffffffffff82169050919050565b5f610d1682610ced565b9050919050565b610d2681610d0c565b8114610d30575f5ffd5b50565b5f81359050610d4181610d1d565b92915050565b5f819050919050565b610d5981610d47565b8114610d63575f5ffd5b50565b5f81359050610d7481610d50565b92915050565b5f5f60408385031215610d9057610d8f610ce9565b5b5f610d9d85828601610d33565b9250506020610dae85828601610d66565b9150509250929050565b5f8115159050919050565b610dcc81610db8565b82525050565b5f602082019050610de55f830184610dc3565b92915050565b610df481610d47565b82525050565b5f602082019050610e0d5f830184610deb565b92915050565b5f5f5f60608486031215610e2a57610e29610ce9565b5b5f610e3786828701610d33565b9350506020610e4886828701610d33565b9250506040610e5986828701610d66565b9150509250925092565b5f60ff82169050919050565b610e7881610e63565b82525050565b5f602082019050610e915f830184610e6f565b92915050565b5f60208284031215610eac57610eab610ce9565b5b5f610eb984828501610d33565b91505092915050565b610ecb81610d0c565b82525050565b5f602082019050610ee45f830184610ec2565b92915050565b5f5f60408385031215610f0057610eff610ce9565b5b5f610f0d85828601610d33565b9250506020610f1e85828601610d33565b9150509250929050565b7f4e487b71000000000000000000000000000000000000000000000000000000005f52602260045260245ffd5b5f6002820490506001821680610f6c57607f821691505b602082108103610f7f57610f7e610f28565b5b50919050565b5f606082019050610f985f830186610ec2565b610fa56020830185610deb565b610fb26040830184610deb565b949350505050565b7f4e487b71000000000000000000000000000000000000000000000000000000005f52601160045260245ffd5b5f610ff182610d47565b9150610ffc83610d47565b925082820190508082111561101457611013610fba565b5b9291505056fea264697066735822122094905ef80a35ba059ffdd746c998bc4a3c4ceea1a4e21affe6113382c839af9e64736f6c634300081e003360c06040525f60025f6101000a81548160ff021916908315150217905550348015610028575f5ffd5b50604051611b1a380380611b1a833981810160405281019061004a91906103b3565b335f73ffffffffffffffffffffffffffffffffffffffff168173ffffffffffffffffffffffffffffffffffffffff16036100bb575f6040517f1e4fbdf70000000000000000000000000000000000000000000000000000000081526004016100b2919061042e565b60405180910390fd5b6100ca8161014b60201b60201c565b508273ffffffffffffffffffffffffffffffffffffffff1660808173ffffffffffffffffffffffffffffffffffffffff1681525050816001908161010e9190610657565b508073ffffffffffffffffffffffffffffffffffffffff1660a08173ffffffffffffffffffffffffffffffffffffffff1681525050505050610726565b5f5f5f9054906101000a900473ffffffffffffffffffffffffffffffffffffffff169050815f5f6101000a81548173ffffffffffffffffffffffffffffffffffffffff021916908373ffffffffffffffffffffffffffffffffffffffff1602179055508173ffffffffffffffffffffffffffffffffffffffff168173ffffffffffffffffffffffffffffffffffffffff167f8be0079c531659141344cd1fd0a4f28419497f9722a3daafe3b4186f6b6457e060405160405180910390a35050565b5f604051905090565b5f5ffd5b5f5ffd5b5f73ffffffffffffffffffffffffffffffffffffffff82169050919050565b5f6102468261021d565b9050919050565b6102568161023c565b8114610260575f5ffd5b50565b5f815190506102718161024d565b92915050565b5f5ffd5b5f5ffd5b5f601f19601f8301169050919050565b7f4e487b71000000000000000000000000000000000000000000000000000000005f52604160045260245ffd5b6102c58261027f565b810181811067ffffffffffffffff821117156102e4576102e361028f565b5b80604052505050565b5f6102f661020c565b905061030282826102bc565b919050565b5f67ffffffffffffffff8211156103215761032061028f565b5b61032a8261027f565b9050602081019050919050565b8281835e5f83830152505050565b5f61035761035284610307565b6102ed565b9050828152602081018484840111156103735761037261027b565b5b61037e848285610337565b509392505050565b5f82601f83011261039a57610399610277565b5b81516103aa848260208601610345565b91505092915050565b5f5f5f606084860312156103ca576103c9610215565b5b5f6103d786828701610263565b935050602084015167ffffffffffffffff8111156103f8576103f7610219565b5b61040486828701610386565b925050604061041586828701610263565b9150509250925092565b6104288161023c565b82525050565b5f6020820190506104415f83018461041f565b92915050565b5f81519050919050565b7f4e487b71000000000000000000000000000000000000000000000000000000005f52602260045260245ffd5b5f600282049050600182168061049557607f821691505b6020821081036104a8576104a7610451565b5b50919050565b5f819050815f5260205f209050919050565b5f6020601f8301049050919050565b5f82821b905092915050565b5f6008830261050a7fffffffffffffffffffffffffffffffffffffffffffffffffffffffffffffffff826104cf565b61051486836104cf565b95508019841693508086168417925050509392505050565b5f819050919050565b5f819050919050565b5f61055861055361054e8461052c565b610535565b61052c565b9050919050565b5f819050919050565b6105718361053e565b61058561057d8261055f565b8484546104db565b825550505050565b5f5f905090565b61059c61058d565b6105a7818484610568565b505050565b5b818110156105ca576105bf5f82610594565b6001810190506105ad565b5050565b601f82111561060f576105e0816104ae565b6105e9846104c0565b810160208510156105f8578190505b61060c610604856104c0565b8301826105ac565b50505b505050565b5f82821c905092915050565b5f61062f5f1984600802610614565b1980831691505092915050565b5f6106478383610620565b9150826002028217905092915050565b61066082610447565b67ffffffffffffffff8111156106795761067861028f565b5b610683825461047e565b61068e8282856105ce565b5f60209050601f8311600181146106bf575f84156106ad578287015190505b6106b7858261063c565b86555061071e565b601f1984166106cd866104ae565b5f5b828110156106f4578489015182556001820191506020850194506020810190506106cf565b86831015610711578489015161070d601f891682610620565b8355505b6001600288020188555050505b505050505050565b60805160a0516113a96107715f395f818161043501528181610a370152610ab701525f818161062a01528181610812015281816109fb01528181610af40152610b8601526113a95ff3fe6080604052600436106100e7575f3560e01c8063735de9f711610089578063a6f2ae3a11610058578063a6f2ae3a146102b7578063dfe100d4146102c1578063f2fde38b146102fd578063fc0c546a14610325576100e7565b8063735de9f7146101fd5780637d4146b8146102275780637e7621c0146102515780638da5cb5b1461028d576100e7565b806353745cf5116100c557806353745cf51461016957806362436d4f146101935780636f707b5b146101bd578063715018a6146101e7576100e7565b8063180fac98146100eb5780633272f505146101155780633c130d901461013f575b5f5ffd5b3480156100f6575f5ffd5b506100ff61034f565b60405161010c9190610c17565b60405180910390f35b348015610120575f5ffd5b50610129610356565b6040516101369190610c17565b60405180910390f35b34801561014a575f5ffd5b50610153610366565b6040516101609190610ca0565b60405180910390f35b348015610174575f5ffd5b5061017d6103f2565b60405161018a9190610cda565b60405180910390f35b34801561019e575f5ffd5b506101a7610404565b6040516101b49190610c17565b60405180910390f35b3480156101c8575f5ffd5b506101d1610414565b6040516101de9190610c17565b60405180910390f35b3480156101f2575f5ffd5b506101fb610420565b005b348015610208575f5ffd5b50610211610433565b60405161021e9190610d6d565b60405180910390f35b348015610232575f5ffd5b5061023b610457565b6040516102489190610c17565b60405180910390f35b34801561025c575f5ffd5b5061027760048036038101906102729190610db4565b61045d565b6040516102849190610c17565b60405180910390f35b348015610298575f5ffd5b506102a16104f0565b6040516102ae9190610dff565b60405180910390f35b6102bf610517565b005b3480156102cc575f5ffd5b506102e760048036038101906102e29190610db4565b61072f565b6040516102f49190610c17565b60405180910390f35b348015610308575f5ffd5b50610323600480360381019061031e9190610e42565b61078c565b005b348015610330575f5ffd5b50610339610810565b6040516103469190610e8d565b60405180910390f35b620f424081565b6b014adf4b7320334b9000000081565b6001805461037390610ed3565b80601f016020809104026020016040519081016040528092919081815260200182805461039f90610ed3565b80156103ea5780601f106103c1576101008083540402835291602001916103ea565b820191905f5260205f20905b8154815290600101906020018083116103cd57829003601f168201915b505050505081565b60025f9054906101000a900460ff1681565b6b019d971e4fe8401e7400000081565b674563918244f4000081565b610428610834565b6104315f6108bb565b565b7f000000000000000000000000000000000000000000000000000000000000000081565b60035481565b5f5f60035490505f671bc16d674ec80000848361047a9190610f30565b85846104869190610f30565b620f42406104949190610f63565b61049e9190610f63565b6104a89190610fd1565b90505f671bc16d674ec800008384620f42406104c49190610f63565b6104ce9190610f63565b6104d89190610fd1565b905080826104e69190611001565b9350505050919050565b5f5f5f9054906101000a900473ffffffffffffffffffffffffffffffffffffffff16905090565b60025f9054906101000a900460ff1615610566576040517f08c379a000000000000000000000000000000000000000000000000000000000815260040161055d9061107e565b60405180910390fd5b5f34116105a8576040517f08c379a000000000000000000000000000000000000000000000000000000000815260040161059f906110e6565b60405180910390fd5b5f6105b23461072f565b90506b019d971e4fe8401e74000000816003546105cf9190610f30565b1115610610576040517f08c379a00000000000000000000000000000000000000000000000000000000081526004016106079061114e565b60405180910390fd5b8060035f8282546106219190610f30565b925050819055507f000000000000000000000000000000000000000000000000000000000000000073ffffffffffffffffffffffffffffffffffffffff1663a9059cbb33836040518363ffffffff1660e01b815260040161068392919061116c565b6020604051808303815f875af115801561069f573d5f5f3e3d5ffd5b505050506040513d601f19601f820116820180604052508101906106c391906111bd565b503373ffffffffffffffffffffffffffffffffffffffff167f8442948036198f1146d3a63c3db355d7e0295c2cc5676c755990445da4fdc1c9348360405161070c9291906111e8565b60405180910390a2674563918244f40000471061072c5761072b61097c565b5b50565b5f5f60035490505f81620f42406107469190610f63565b90505f81036107635769d3c21bcecceda100000092505050610787565b80670de0b6b3a7640000856107789190610f63565b6107829190610fd1565b925050505b919050565b610794610834565b5f73ffffffffffffffffffffffffffffffffffffffff168173ffffffffffffffffffffffffffffffffffffffff1603610804575f6040517f1e4fbdf70000000000000000000000000000000000000000000000000000000081526004016107fb9190610dff565b60405180910390fd5b61080d816108bb565b50565b7f000000000000000000000000000000000000000000000000000000000000000081565b61083c610bf8565b73ffffffffffffffffffffffffffffffffffffffff1661085a6104f0565b73ffffffffffffffffffffffffffffffffffffffff16146108b95761087d610bf8565b6040517f118cdaa70000000000000000000000000000000000000000000000000000000081526004016108b09190610dff565b60405180910390fd5b565b5f5f5f9054906101000a900473ffffffffffffffffffffffffffffffffffffffff169050815f5f6101000a81548173ffffffffffffffffffffffffffffffffffffffff021916908373ffffffffffffffffffffffffffffffffffffffff1602179055508173ffffffffffffffffffffffffffffffffffffffff168173ffffffffffffffffffffffffffffffffffffffff167f8be0079c531659141344cd1fd0a4f28419497f9722a3daafe3b4186f6b6457e060405160405180910390a35050565b60025f9054906101000a900460ff16156109cb576040517f08c379a00000000000000000000000000000000000000000000000000000000081526004016109c290611259565b60405180910390fd5b600160025f6101000a81548160ff0219169083151502179055505f4790505f6b014adf4b7320334b9000000090507f000000000000000000000000000000000000000000000000000000000000000073ffffffffffffffffffffffffffffffffffffffff1663095ea7b37f0000000000000000000000000000000000000000000000000000000000000000836040518363ffffffff1660e01b8152600401610a7492919061116c565b6020604051808303815f875af1158015610a90573d5f5f3e3d5ffd5b505050506040513d601f19601f82011682018060405250810190610ab491906111bd565b507f000000000000000000000000000000000000000000000000000000000000000073ffffffffffffffffffffffffffffffffffffffff1663f305d719837f0000000000000000000000000000000000000000000000000000000000000000845f5f610b1e6104f0565b426040518863ffffffff1660e01b8152600401610b40969594939291906112b0565b60606040518083038185885af1158015610b5c573d5f5f3e3d5ffd5b50505050506040513d601f19601f82011682018060405250810190610b819190611323565b5050507f000000000000000000000000000000000000000000000000000000000000000073ffffffffffffffffffffffffffffffffffffffff167fff82574eaa8642dbcd8b6039f466f8f51ee2b0149d002da87e0cf7b4075b85528383604051610bec9291906111e8565b60405180910390a25050565b5f33905090565b5f819050919050565b610c1181610bff565b82525050565b5f602082019050610c2a5f830184610c08565b92915050565b5f81519050919050565b5f82825260208201905092915050565b8281835e5f83830152505050565b5f601f19601f8301169050919050565b5f610c7282610c30565b610c7c8185610c3a565b9350610c8c818560208601610c4a565b610c9581610c58565b840191505092915050565b5f6020820190508181035f830152610cb88184610c68565b905092915050565b5f8115159050919050565b610cd481610cc0565b82525050565b5f602082019050610ced5f830184610ccb565b92915050565b5f73ffffffffffffffffffffffffffffffffffffffff82169050919050565b5f819050919050565b5f610d35610d30610d2b84610cf3565b610d12565b610cf3565b9050919050565b5f610d4682610d1b565b9050919050565b5f610d5782610d3c565b9050919050565b610d6781610d4d565b82525050565b5f602082019050610d805f830184610d5e565b92915050565b5f5ffd5b610d9381610bff565b8114610d9d575f5ffd5b50565b5f81359050610dae81610d8a565b92915050565b5f60208284031215610dc957610dc8610d86565b5b5f610dd684828501610da0565b91505092915050565b5f610de982610cf3565b9050919050565b610df981610ddf565b82525050565b5f602082019050610e125f830184610df0565b92915050565b610e2181610ddf565b8114610e2b575f5ffd5b50565b5f81359050610e3c81610e18565b92915050565b5f60208284031215610e5757610e56610d86565b5b5f610e6484828501610e2e565b91505092915050565b5f610e7782610d3c565b9050919050565b610e8781610e6d565b82525050565b5f602082019050610ea05f830184610e7e565b92915050565b7f4e487b71000000000000000000000000000000000000000000000000000000005f52602260045260245ffd5b5f6002820490506001821680610eea57607f821691505b602082108103610efd57610efc610ea6565b5b50919050565b7f4e487b71000000000000000000000000000000000000000000000000000000005f52601160045260245ffd5b5f610f3a82610bff565b9150610f4583610bff565b9250828201905080821115610f5d57610f5c610f03565b5b92915050565b5f610f6d82610bff565b9150610f7883610bff565b9250828202610f8681610bff565b91508282048414831517610f9d57610f9c610f03565b5b5092915050565b7f4e487b71000000000000000000000000000000000000000000000000000000005f52601260045260245ffd5b5f610fdb82610bff565b9150610fe683610bff565b925082610ff657610ff5610fa4565b5b828204905092915050565b5f61100b82610bff565b915061101683610bff565b925082820390508181111561102e5761102d610f03565b5b92915050565b7f54726164696e67206973206c697665206f6e20556e69737761700000000000005f82015250565b5f611068601a83610c3a565b915061107382611034565b602082019050919050565b5f6020820190508181035f8301526110958161105c565b9050919050565b7f4d7573742073656e6420455448000000000000000000000000000000000000005f82015250565b5f6110d0600d83610c3a565b91506110db8261109c565b602082019050919050565b5f6020820190508181035f8301526110fd816110c4565b9050919050565b7f437572766520736f6c64206f75740000000000000000000000000000000000005f82015250565b5f611138600e83610c3a565b915061114382611104565b602082019050919050565b5f6020820190508181035f8301526111658161112c565b9050919050565b5f60408201905061117f5f830185610df0565b61118c6020830184610c08565b9392505050565b61119c81610cc0565b81146111a6575f5ffd5b50565b5f815190506111b781611193565b92915050565b5f602082840312156111d2576111d1610d86565b5b5f6111df848285016111a9565b91505092915050565b5f6040820190506111fb5f830185610c08565b6112086020830184610c08565b9392505050565b7f416c7265616479206c61756e63686564000000000000000000000000000000005f82015250565b5f611243601083610c3a565b915061124e8261120f565b602082019050919050565b5f6020820190508181035f83015261127081611237565b9050919050565b5f819050919050565b5f61129a61129561129084611277565b610d12565b610bff565b9050919050565b6112aa81611280565b82525050565b5f60c0820190506112c35f830189610df0565b6112d06020830188610c08565b6112dd60408301876112a1565b6112ea60608301866112a1565b6112f76080830185610df0565b61130460a0830184610c08565b979650505050505050565b5f8151905061131d81610d8a565b92915050565b5f5f5f6060848603121561133a57611339610d86565b5b5f6113478682870161130f565b93505060206113588682870161130f565b92505060406113698682870161130f565b915050925092509256fea2646970667358221220c5b1bd89a07173605d3e89fff997e67d782428f98463d519884e7d22aa7998b064736f6c634300081e0033a26469706673582212201cddeedd5e9ade6b111ebaa88df43f61342454e484f13c80cee13daa9b5e421164736f6c634300081e0033","linkReferences":{}},"methodIdentifiers":{"UNISWAP_V2_ROUTER()":"a82ed9ec","allCoins(uint256)":"13560cac","createCoin(string,string,string)":"3ae862a9","getAllCoins()":"a4ec0620","getCoinCount()":"ab7e38a0"},"id":31}